S027000053656C665F62616C616E63696E675F726F626F745F76657273696F6E312E322E73726563FA
S11300000C94DE000C94FB000C94FB000C94FB009D
S11300100C94FB000C94FB000C94FB000C94FB0070
S11300200C94FB000C94FB000C94FB000C94FB0060
S11300300C94FB000C9429050C94FB000C94FB001D
S11300400C94FB000C94FB000C94FB000C94FB0040
S11300500C94FB00084AD73B3BCE016E84BCBFFD29
S1130060C12F3D6C74319ABD56833DDA3D00C77F84
S113007011BED9E4BB4C3E916BAAAABE000000801D
S11300803F05A84CCDB2D44EB93836A9020C50B9AC
S1130090918688083CA6AAAA2ABE000000803F06D2
S11300A064EC1B3C04BC163E3BE5B93CC93C37C27E
S11300B09E5A3D660498083EEA69AAAA3E000000DA
S11300C0803F00407A10F35A00A0724E18090010C5
S11300D0A5D4E80000E87648170000E40B540200B9
S11300E000CA9A3B000000E1F505000080969800E4
S11300F0000040420F000000A0860100000010270D
S113010000000000E803000000006400000000009C
S11301100A00000000000100000000002C76D888CE
S1130120DC674F0823DFC1DFAE59E1B1B796E5E3E1
S1130130E453C63AE651997696E8E6C28426EB89FA
S11301408C9B62ED407C6FFCEFBC9C9F40F2BAA597
S11301506FA5F490055A2AF75C936B6CF9676DC12F
S11301601BFCE0E40D47FEF520E6B500D0ED902E33
S11301700300943577050080841E080000204E0A91
S1130180000000C80C333333330F986E12831141CF
S1130190EF8D2114893BE65516CFFEE6DB18D1849A
S11301A04B381BF77C1D901DA4BBE42420328472C1
S11301B05E228100C9F124ECA1E53D2711241FBE74
S11301C0CFE5D8E0DEBFCDBF10E0A0E6B0E0ECE3C1
S11301D0F0E202C005900D92A23CB107D9F720E0ED
S11301E0A2ECB0E001C01D92AB3FB207E1F70E9460
S11301F0DC020C941C100C940000CF93C82F80EDEB
S11302000E94F1088C2F0E94180981ED0E940F09A9
S11302100E942509C82F0E9412098C2FCF9108959E
S1130220CF93DF93D82FC62F80ED0E94F1088D2F36
S11302300E9418098C2F0E9418090E941209DF914C
S1130240CF910895CF93DF93D82F83E48D0F0E942D
S1130250FD00C82F84E48D0F0E94FD006C2F70E018
S1130260762F6627680F711D072E000C880B990BDB
S11302700E94BF0ADF91CF910895CF93DF93D82FC7
S11302808BE38D0F0E94FD00C82F8CE38D0F0E941D
S1130290FD002C2F30E0322F2227A901480F511DD9
S11302A0CA01DF91CF9108952F923F924F925F92AE
S11302B06F927F928F929F92AF92BF92CF92DF9272
S11302C0EF92FF920F931F93CF93DF93CDB7DEB7D7
S11302D068970FB6F894DEBF0FBECDBF1C018B012B
S11302E05A01FB01C480D580E680F78025E33AEF0C
S11302F04EE85CE3F50160817181828193810E9403
S1130300890C69837A838B839C830E94F60C6D83AA
S11303107E838F8398879B01AC01C701B6010E943D
S1130320890C6D877E878F87988B25E33AEF4EE89B
S11303305CE3F50164817581868197810E94890C53
S11303402B013C010E94480D69877A878B879C8723
S1130350F80180849184A284B38469817A818B8139
S11303609C810E94100A69837A838B839C839B01FE
S1130370AC01C501B4010E94890C698B7A8B8B8B0B
S11303809C8BC301B2010E94100A2B013C012985F8
S11303903A854B855C856D857E858F8598890E941D
S11303A0890CF80120813181428153810E942D09F9
S11303B06D8B7E8B8F8B988F29893A894B895C89C9
S11303C069857A858B859C850E94890C9B01AC018B
S11303D06D897E898F89988D0E942D09F101608332
S11303E071838283938329813A814B815C81C70124
S11303F0B6010E94890C6B017C01A50194016D81F9
S11304007E818F8198850E94890C9B01AC01C70174
S1130410B6010E942C09F101648375838683978356
S1130420A30192016D857E858F8598890E94150AA6
S11304304B015C01A301920169897A898B899C89AA
S11304400E94150A9B01AC01C501B4010E942D094B
S1130450F1016087718782879387C10168960FB61F
S1130460F894DEBF0FBECDBFDF91CF911F910F91E6
S1130470FF90EF90DF90CF90BF90AF909F908F90C0
S11304807F906F905F904F903F902F900895181633
S1130490190654F4D89AD9988F3F910519F014F09D
S11304A08FEF90E083BD14C0D99AD8989C0199230A
S11304B024F422273327281B390B33233CF02F3F06
S11304C0310529F024F02FEF30E001C020E023BDF6
S11304D01616170654F4DA9ADB986F3F710519F073
S11304E014F06FEF70E06CBF0895DB9ADA98CB01DB
S11304F0992324F488279927861B970B99233CF08A
S11305008F3F910529F024F08FEF90E001C080E047
S11305108CBF08958AB38F608ABB8F9ABB9A089563
S113052082E08BB98AB188698AB986E880BD10BC3B
S113053087E689B908955D9BFECF8CB908950F9322
S11305401F93CF93DF93CDB7DEB72A970FB6F894F6
S1130550DEBF0FBECDBF8E010F5F1F4F23E047E00C
S11305600E94960D8981882369F010E00E949B0205
S11305701F5FE1E0F0E0EC0FFD1FE10FF11D808152
S11305808111F4CF2A960FB6F894DEBF0FBECDBF0B
S1130590DF91CF911F910F910895CF93DF93EC01D9
S11305A08881882331F021960E949B0289918111D0
S11305B0FBCFDF91CF910895CF93DF93CDB7DEB713
S11305C0E4970FB6F894DEBF0FBECDBF19821A822E
S11305D01B821C821D821E821F82188619861A861F
S11305E01B861C86198E1A8E1B8E1C8E1D8E1E8ECB
S11305F01F8E18A219A21AA21BA21CA28FE195E8B1
S1130600ABE6BFE38DA39EA3AFA3B8A7BD9AC598DD
S113061081B381BB1FBC8EB582608EBD85B58A66F1
S113062085BD83B78A6683BF13BC1CBEC0906800B7
S1130630D0906900E0906A00F0906B000091C800CF
S11306401091C9002091CA003091CB0040916C00F8
S113065050916D0060916E0070916F0081ED90E09B
S11306600E941207409164005091650060916600F9
S11306707091670081ED90E00E943E070E94900215
S113068080E790E00E94CD0278940E94CF088DE725
S113069090E00E94CD02BD9AC59860E08BE60E946E
S11306A0100168E08BE10E9410010E948A022FEF82
S11306B083ED90E3215080409040E1F700C00000BA
S11306C080E00E943D018C0182E00E943D017C019A
S11306D084E00E943D015C01B7016A547140072E19
S11306E0000C880B990B0E94BF0A6B017C0180EA05
S11306F096EF8A199B09BC01990F880B990B0E94EC
S1130700BF0A4B015C01A70196010E94AC0921EECE
S11307103EE245E652E40E94890C698F7A8F8B8F02
S11307209C8FA5019401C701B6010E94E80B6B01DF
S11307307C01C801865B9340BC01990F880B990B1F
S11307400E94BF0AA70196010E94AC0921EE3EE275
S113075045E652E40E94890C6D8F7E8F8F8F98A39B
S11307600F2EF0EA2F2EF6EF3F2EF02D8CB59DB50F
S113077080319742D8F36CB57DB580E090E00E945B
S1130780BD0A20E034E244E759E40E94150A60936C
S1130790CC007093CD008093CE009093CF001DBC0D
S11307A01CBC80E00E943D018C0182E00E943D015E
S11307B06C0184E00E943D017C0180E00E942201E2
S11307C020E030E04FE853E40E942D0920E030E0BF
S11307D040E752E40E94150A2091CC003091CD00EC
S11307E04091CE005091CF000E94890C69837A8396
S11307F08B839C8384E00E94220120E030E040E16E
S113080053E40E942D0920E030E040E752E40E94C6
S1130810150A2091CC003091CD004091CE0050912A
S1130820CF000E94890C6D837E838F83988782E03A
S11308300E94220120E030E047E553E40E942D09A4
S1130840905820E030E040E752E40E94150A2091DD
S1130850CC003091CD004091CE005091CF000E9449
S1130860890C69877A878B879C87B6016A547140A3
S1130870072E000C880B990B0E94BF0A4B015C01E8
S1130880B1016E197F09072E000C880B990B0E9489
S1130890BF0A2B013C01A50194010E94AC0969A780
S11308A07AA78BA79CA7A3019201C501B4010E945A
S11308B0E80B4B015C01B801665B7340072E000C2A
S11308C0880B990B0E94BF0AA50194010E94AC09F0
S11308D06DA77EA78FA798ABAE01475E5F4FBE01A1
S11308E06F5F7F4FCE010D960E9454014D845E844C
S11308F06F8478888DA09EA0AFA0B8A4A5019401B0
S113090060E070E080E89FE30E942C096B017C01A9
S11309102D8D3E8D4F8D58A169897A898B899C894B
S11309200E942D099B01AC01C501B4010E94890CF0
S113093069AB7AAB8BAB9CAB21EE3EE245E652E46D
S11309406DA57EA58FA598A90E94890CA701960183
S11309500E94890C9B01AC0169A97AA98BA99CA965
S11309600E942D096D8F7E8F8F8F98A3298D3A8DCC
S11309704B8D5C8DC301B2010E942D099B01AC011A
S1130980C501B4010E94890C4B015C0121EE3EE2D9
S113099045E652E469A57AA58BA59CA50E94890C1D
S11309A0A70196010E94890C9B01AC01C501B40109
S11309B00E942D09AB01BC01498F5A8F6B8F7C8F2C
S11309C04093C2005093C3006093C4007093C50069
S11309D00091CC001091CD002091CE003091CF0039
S11309E081ED90E00E944C070E94870ADC01CB0154
S11309F0BC010E9447028090640090906500A09022
S1130A006600B0906700C0906800D0906900E090E4
S1130A106A00F0906B000091C8001091C900209109
S1130A20CA003091CB0040916C0050916D006091F0
S1130A306E0070916F0081ED90E00E947B088091C0
S1130A40C6009091C70001969093C7008093C6009A
S1130A508DCE1F920F920FB60F9211248F929F92F8
S1130A60AF92BF92CF92DF92EF92FF920F931F93B8
S1130A702F933F934F935F936F937F938F939F93A2
S1130A80AF93BF93EF93FF938CB18093D0008033E7
S1130A90D9F42DEC3CEC4CEC5DE360916C0070916E
S1130AA06D0080916E0090916F000E942D096093FB
S1130AB06C0070936D0080936E0090936F0081EDD5
S1130AC090E00E94A7086FC18133D9F42DEC3CEC6F
S1130AD04CEC5DE360916C0070916D0080916E0050
S1130AE090916F000E942C0960936C0070936D00CC
S1130AF080936E0090936F0081ED90E00E94A708B0
S1130B0052C18233D9F42FE632E143E85AE36091CB
S1130B1068007091690080916A0090916B000E9456
S1130B202D09609368007093690080936A00909324
S1130B306B0081ED90E00E94A70835C18333D9F49E
S1130B402FE632E143E85AE360916800709169004E
S1130B5080916A0090916B000E942C096093680058
S1130B607093690080936A0090936B0081ED90E02C
S1130B700E94A70818C18433D9F42FE632E143E870
S1130B805AE36091C8007091C9008091CA009091A5
S1130B90CB000E942D096093C8007093C900809314
S1130BA0CA009093CB0081ED90E00E94A708FBC09F
S1130BB08533D9F42FE632E143E85AE36091C80063
S1130BC07091C9008091CA009091CB000E942C09B9
S1130BD06093C8007093C9008093CA009093CB00BF
S1130BE081ED90E00E94A708DEC0863399F488E87E
S1130BF090E00E94CD026091C2007091C300809188
S1130C00C4009091C5000E949F028AE790E00E9470
S1130C10CD02C9C0873349F52AE037ED43E25CE3EE
S1130C206091600070916100809162009091630016
S1130C300E942D09609360007093610080936200AC
S1130C409093630088E990E00E94CD026091600077
S1130C507091610080916200909163000E949F02F4
S1130C608AE790E00E94CD029EC0883349F52AE0CD
S1130C7037ED43E25CE36091600070916100809124
S1130C806200909163000E942C096093600070934D
S1130C906100809362009093630088E990E00E9471
S1130CA0CD0260916000709161008091620090912A
S1130CB063000E949F028AE790E00E94CD0273C005
S1130CC0813649F520E030E040E85FE3609164005C
S1130CD07091650080916600909167000E942D09D3
S1130CE0609364007093650080936600909367003E
S1130CF081EA90E00E94CD026091640070916500E9
S1130D0080916600909167000E949F028AE790E0BC
S1130D100E94CD0248C0823649F520E030E040E828
S1130D205FE360916400709165008091660090912A
S1130D3067000E942C09609364007093650080939F
S1130D4066009093670081EA90E00E94CD02609172
S1130D5064007091650080916600909167000E9424
S1130D609F028AE790E00E94CD021DC0863669F496
S1130D7080E090E0ACEDB2EC809364009093650069
S1130D80A0936600B09367000EC0833761F480E0DF
S1130D9090E0A2EBB2EC8093640090936500A09382
S1130DA06600B09367008090640090906500A09006
S1130DB06600B0906700C0906800D0906900E09031
S1130DC06A00F0906B000091C8001091C900209156
S1130DD0CA003091CB0040916C0050916D0060913D
S1130DE06E0070916F0081ED90E00E947B08FF918E
S1130DF0EF91BF91AF919F918F917F916F915F918F
S1130E004F913F912F911F910F91FF90EF90DF90A1
S1130E10CF90BF90AF909F908F900F900FBE0F9088
S1130E201F901895CF92DF92EF92FF920F931F932A
S1130E30FC01408351836283738304831583268377
S1130E403783C086D186E286F38614861586168695
S1130E501786148A158A168A178A108A118A128AA2
S1130E60138A108E118E128E138E158E148E1F916E
S1130E700F91FF90EF90DF90CF900895FC0144878D
S1130E80558766877787148A158A168A178A108A7F
S1130E90118A128A138A08952F923F924F925F9279
S1130EA06F927F928F929F92AF92BF92CF92DF9276
S1130EB0EF92FF920F931F93CF93DF93CDB7DEB7DB
S1130EC027970FB6F894DEBF0FBECDBF9F838E83E6
S1130ED049835A836B837C83680179019A01AB014E
S1130EE0DC011C966D917D918D919C911F970E94C0
S1130EF02C092B013C01A70196010E94890CEE816B
S1130F00FF8120893189428953890E942D09262E27
S1130F10372E182F092FAE81BF812D913D914D9110
S1130F205C91C301B2010E94890C4B015C01EE810A
S1130F30FF812481358146815781622D732D812F54
S1130F40902F0E94890C9B01AC01C501B4010E9441
S1130F502D094B015C01AE81BF8154962D913D91C9
S1130F604D915C915797C301B2010E942C09A701CE
S1130F7096010E94150AEE81FF8120853185428504
S1130F8053850E94890C9B01AC01C501B4010E94E8
S1130F902D09A62E972E882E9D83AE81BF815C9647
S1130FA0BC90B0FE42C020E030E0A901622D732D58
S1130FB0812F902F0E940B0A8823ACF4EE81FF81CD
S1130FC0C68CD78CE0A0F1A0F7FAF094F7F8F0946F
S1130FD0A7019601622D732D812F902F0E940B0A79
S1130FE08823FCF022C0AE81BF815E96FC905E97A0
S1130FF05F96EC905F979096DC9090979196CC904A
S11310002F2D3E2D4D2D5C2D622D732D812F902F74
S11310100E940B0A88234CF02F2C3E2C1D2D0C2DE6
S113102004C02C2C3D2C1E2D0F2D822D932DA12F71
S1131030B02FEE81FF81808B918BA28BB38BB2FE9C
S113104010C016A1E7A0F0A401A5212F3E2D4F2D1D
S1131050502F6A2D792D882D9D810E940B0A88239B
S11310606CF1B3FE19C0AE81BF8192961C91929728
S11310709396EC9093979496FC90949795960C91F4
S1131080212F3E2D4F2D502F6A2D792D882D9D8196
S11310900E94D50B181694F0EE81FF81448A558A7C
S11310A0668A778A89819A81AB81BC81808F918F8E
S11310B0A28FB38F1A2DE92CF82C0D81612F7E2D70
S11310C08F2D902F27960FB6F894DEBF0FBECDBF9D
S11310D0DF91CF911F910F91FF90EF90DF90CF9010
S11310E0BF90AF909F908F907F906F905F904F9044
S11310F03F902F9008958F929F92AF92BF92CF927C
S1131100DF92EF92FF920F931F93CF93DF93CDB7AC
S1131110DEB7FC01408351836283738304831583A8
S113112026833783C086D186E286F38684869586B5
S1131130A686B786DF91CF911F910F91FF90EF9014
S1131140DF90CF90BF90AF909F908F900895CF93F2
S1131150DF93EC0187EA90E00E94CD0268817981F7
S11311608A819B810E949F0280EB90E00E94CD02C5
S1131170688579858A859B850E949F0289EB90E02A
S11311800E94CD026C817D818E819F810E949F028D
S11311908AE790E00E94CD02DF91CF91089511B8C3
S11311A082E080B9089594EA96BF06B607FEFDCFA3
S11311B091B1987F983011F0903179F483B984E833
S11311C086BF06B607FEFDCF91B1987F983139F0FE
S11311D081E0903429F480E0089581E0089580E06E
S11311E0089524EA34E844E926BF06B607FEFDCF95
S11311F091B1987F983011F09031B1F783B936BF2F
S113120006B607FEFDCF91B1987F903211F0983564
S113121029F446BF06B604FCFDCFE6CF08950E942C
S1131220D308089584E986BF06B604FCFDCF08956B
S113123083B984E886BF06B607FEFDCF91B1987FD7
S113124081E0983209F480E0089584E886BF06B608
S113125007FEFDCF83B108955058BB27AA270E94EB
S113126044090C94870B0E944E0B38F00E94550BD6
S113127020F039F49F3F19F426F40C94240B0EF457
S1131280E095E7FB0C941E0BE92F0E94AC0B58F37E
S1131290BA17620773078407950720F079F4A6F557
S11312A00C94CE0B0EF4E0950B2EBA2FA02D0B014F
S11312B0B90190010C01CA01A0011124FF27591B97
S11312C099F0593F50F4503E68F11A16F040A22F9D
S11312D0232F342F4427585FF3CF4695379527950E
S11312E0A795F0405395C9F77EF41F16BA0B620B0D
S11312F0730B840BBAF09150A1F0FF0FBB1F661F54
S1131300771F881FC2F70EC0BA0F621F731F841F96
S113131048F4879577956795B795F7959E3F08F0BC
S1131320B0CF9395880F08F09927EE0F979587957E
S113133008950E944E0B60F080E891E009F49EEF5E
S11313400E94550B28F040E851E071F45EEF0CC0A8
S11313500C94240B0C94CE0BE92FE0780E94AC0B78
S113136040F3092E052AB1F3261737074807590712
S113137038F00E2E07F8E02569F0E025E0640AC095
S1131380EF6307F8009407FADB01B9019D01DC0162
S1131390CA01AD01EF930E942C0A0E94870B0E94A0
S11313A0DC095F91552339F02BED3FE049E450FD12
S11313B049EC0C942D090895DF93DD27B92FBF77ED
S11313C040E85FE31616170648075B0718F4D92FA1
S11313D00E94470C9F938F937F936F930E94440DB9
S11313E0E4E5F0E00E94270B0E94870B2F913F91C8
S11313F04F915F910E949C0CDD2351F09058A2EA1A
S11314002AED3FE049EC5FE3D0785D270E94440970
S1131410DF910C94870B0E94FA0A08F481E0089586
S11314200E945E0BE3950C94980B0E94290A0C947D
S1131430870B0E94550B58F00E944E0B40F029F484
S11314405F3F29F00C941E0B51110C94CF0B0C949C
S1131450240B0E94AC0B68F39923B1F3552391F349
S1131460951B550BBB27AA2762177307840738F00F
S11314709F5F5F4F220F331F441FAA1FA9F335D06C
S11314800E2E3AF0E0E832D091505040E695001C20
S1131490CAF72BD0FE2F29D0660F771F881FBB1FDA
S11314A0261737074807AB07B0E809F0BB0B802DB8
S11314B0BF01FF2793585F4F3AF09E3F510578F0E4
S11314C00C941E0B0C94CF0B5F3FE4F3983ED4F3C3
S11314D0869577956795B795F7959F5FC9F7880FB8
S11314E0911D9695879597F90895E1E0660F771F0A
S11314F0881FBB1F621773078407BA0720F0621B9B
S1131500730B840BBA0BEE1F88F7E09508950E94C5
S11315108E0A6894B1110C94CF0B08950E94B40BF9
S113152088F09F5798F0B92F9927B751B0F0E1F0A0
S1131530660F771F881F991F1AF0BA95C9F714C050
S1131540B13091F00E94CE0BB1E008950C94CE0B13
S1131550672F782F8827B85F39F0B93FCCF3869589
S113156077956795B395D9F73EF4909580957095E6
S113157061957F4F8F4F9F4F0895E89409C097FB63
S11315803EF490958095709561957F4F8F4F9F4F56
S11315909923A9F0F92F96E9BB279395F69587959A
S11315A077956795B795F111F8CFFAF4BB0F11F45D
S11315B060FF1BC06F5F7F4F8F4F9F4F16C0882304
S11315C011F096E911C0772321F09EE8872F762F3A
S11315D005C0662371F096E8862F70E060E02AF07B
S11315E09A95660F771F881FDAF7880F9695879567
S11315F097F90895990F0008550FAA0BE0E8FEEF3C
S113160016161706E807F907C0F012161306E407C2
S1131610F50798F0621B730B840B950B39F40A26BB
S113162061F0232B242B252B21F408950A2609F499
S1131630A140A6958FEF811D811D089597F99F679D
S113164080E870E060E008959FEF80EC0895DF93F8
S1131650CF931F930F93FF92EF92DF927B018C0144
S1131660689406C0DA2EEF010E949C0CFE01E894F7
S1131670A5912591359145915591A6F3EF010E94CD
S11316804409FE019701A801DA9469F7DF90EF900D
S1131690FF900F911F91CF91DF91089500240A9438
S11316A01616170618060906089500240A94121639
S11316B013061406050608950C94240B0E94B40B1B
S11316C0D8F3E894E0E0BB279F57F0F02AED3FE021
S11316D049EC06C0EE0FBB0F661F771F881F28F06A
S11316E0B23A62077307840728F0B25A620B730B8D
S11316F0840BE3959A9572F7803830F49A95BB0F72
S1131700661F771F881FD2F790480C946F0D092E1F
S11317100394000C11F4882352F0BB0F40F4BF2B48
S113172011F460FF04C06F5F7F4F8F4F9F4F089588
S1131730EF93E0FF07C0A2EA2AED3FE049EC5FEB3C
S11317400E9444090E94870B0F90039401FC905857
S1131750E1E8F0E00C94820D57FD9058440F551FBA
S113176059F05F3F71F04795880F97FB991F61F01F
S11317709F3F79F087950895121613061406551F96
S1131780F2CF4695F1DF08C0161617061806991F02
S1131790F1CF86957105610508940895E894BB27F7
S11317A066277727CB0197F908950E94FA0A08F46F
S11317B08FEF08950E944E0B29F00E94550B11F0F3
S11317C00C94240B0C941E0BB901CA010C946D0DDE
S11317D09F775F770E94AC0B68F39923A9F3552395
S11317E0A9F3FF27951758F4E52FE91BED3060F7AF
S11317F05E3B10F0F1E41CC09034E0F40AC0E92F21
S1131800E51BED3018F79E3B10F0F1E411C05034A5
S113181088F4F9EA88232AF09A95660F771F881FBF
S1131820DAF744232AF05A95220F331F441FDAF7BC
S11318309F1B5F1BFF931F930F93FF92EF927901FE
S11318408A01BB27AB2F9B01AC010E949F0C97011F
S1131850A801BF937B018C01AA27BA2FB901CA0141
S11318600E949F0CAF919701A801EF90FF900F91F8
S11318701F910E9444090E94870B0E94040D4F91FE
S113188040FF0895552747FD50950C94530C9B0138
S1131890AC0160E070E080E89FE30C94150A0C94BE
S11318A01E0B0C946D0D0E94B40BD8F39923C9F34D
S11318B0940F511DA3F39150504094F059F0882394
S11318C032F0660F771F881F91505040C1F79E3F3A
S11318D051052CF7880F911D9695879597F90895D2
S11318E05F3FACF0983E9CF0BB2786957795679553
S11318F0B79508F4B1609395C1F7BB0F58F711F48D
S113190060FFE8CF6F5F7F4F8F4F9F4FE3CF0C9403
S1131910CF0B0E949C0C0C94870B0E944E0B38F04A
S11319200E94550B20F0952311F00C941E0B0C947F
S1131930240B11240C94CF0B0E94AC0B70F3959FD5
S1131940C1F3950F50E0551F629FF001729FBB27B2
S1131950F00DB11D639FAA27F00DB11DAA1F649F4E
S11319606627B00DA11D661F829F2227B00DA11D01
S1131970621F739FB00DA11D621F839FA00D611D87
S1131980221F749F3327A00D611D231F849F600DA8
S1131990211D822F762F6A2F11249F5750409AF0D1
S11319A0F1F088234AF0EE0FFF1FBB1F661F771F5D
S11319B0881F91505040A9F79E3F510580F00C9428
S11319C01E0B0C94CF0B5F3FE4F3983ED4F3869543
S11319D077956795B795F795E7959F5FC1F7FE2BC8
S11319E0880F911D9695879597F908959F930E9466
S11319F05E0B0F9007FCEE5F0C94980B19F416F431
S1131A000C94240B0C946D0D0E94B40BB8F3992321
S1131A10C9F3B6F39F57550B87FF0E947B0D002433
S1131A20A0E640EA900180585695979528F4805C8A
S1131A30660F771F881F20F026173707480730F4F2
S1131A40621B730B840B202931294A2BA69517940A
S1131A500794202531254A2758F7660F771F881FDA
S1131A6020F026173707480730F4620B730B840BFA
S1131A70200D311D411DA09581F7B901842F915886
S1131A80880F9695879508959B01AC010C94890C59
S1131A90DF93D92F0E945E0BE695D7952AED3FE0A0
S1131AA049E45FE3B33A6207730784079507D79560
S1131AB03AF0A2EA49EC90680E9444090E94870B1C
S1131AC0EFE9F0E00E94820DDD0F13F00E94470C55
S1131AD0DD0F0BF49058DF9108959F3F31F0915042
S1131AE020F4879577956795B795880F911D9695FE
S1131AF0879597F9089591505040660F771F881F76
S1131B00D2F708959F938F937F936F93FF93EF93EF
S1131B109B01AC010E94890CEF91FF910E94270B5D
S1131B202F913F914F915F910C94890CEF920F93F9
S1131B301F93CF93DF93E80147FD02C034E001C057
S1131B4034E1E42F440FFF0BF7FF03C0F195E19557
S1131B50F109E32E022F2E2FAE010E94B60DCE0105
S1131B60DF91CF911F910F91EF9008954F925F9263
S1131B706F927F929F92AF92BF92CF92DF92EF9239
S1131B80FF920F931F93CF93DF93CDB7DEB72997BF
S1131B900FB6F894DEBF0FBECDBF6A01122FB02E70
S1131BA02BE3201720F0FF24F394F00E02C0BCE3D3
S1131BB0FB2E0F2D27E0AE014F5F5F4F0E94440FB5
S1131BC0AC018981982F9970913031F0E1FC06C005
S1131BD0E0FE06C090E205C09DE203C09BE201C0A6
S1131BE090E0EE2DE07183FF3CC0911102C083E0D0
S1131BF001C084E0811718F4212F281B01C020E0C4
S1131C00E1110BC0F601822F30E2882319F03193E1
S1131C108150FBCFC20ED11C20E0992329F0D601BC
S1131C209C93F60131966F01C6010396E2FE0AC049
S1131C303EE4D6013C9341E411964C9311971296DD
S1131C403C9306C03EE6F601308341E6418332838D
S1131C50FC01322F40E2332309F442C04193315056
S1131C60FACF82FF44C0911102C083E001C084E036
S1131C70811718F4212F281B01C020E0E1110BC0AB
S1131C80F601822F30E2882319F031938150FBCF83
S1131C90C20ED11C20E0992329F0D6019C93F601B1
S1131CA031966F01C6010396E2FE0BC039E4D601FA
S1131CB03C933EE411963C93119736E412963C9380
S1131CC007C039E6F60130833EE6318336E63283D7
S1131CD0FC01322F40E2332319F041933150FBCF02
S1131CE0FC01E20FF11D10828EEF9FEFB7C0F1E00F
S1131CF0911101C0F0E06F2F70E01416150624F462
S1131D009A012F5F3F4F02C021E030E0260F371FBA
S1131D10BB2029F06B2D70E06F5F7F4F02C060E045
S1131D2070E0260F371F612F70E0261737071CF469
S1131D30121B212F01C020E03E2D387159F4D60129
S1131D40322F60E2332319F06D933150FBCFC20E72
S1131D50D11C20E0FF2331F0D6019C93B6016F5FC4
S1131D607F4F6B01E1110BC0F601922F30E39923F1
S1131D7019F031939150FBCFC20ED11C20E09F2D5E
S1131D80940F3A81782F7071A72E84FF03C03133EA
S1131D9009F49150191624F4993018F098E001C010
S1131DA091E0E42F852F57FF02C0E0E080E06E2F22
S1131DB0782FE0E0F0E0AEE29A2E3A01691A710859
S1131DC02A01461A570A0B2D10E0119501951109A5
S1131DD06F3F8FEF780729F4D6019C92C6010196D4
S1131DE06C014617570784F0661677066CF47F017A
S1131DF0E40CF51CA1E0B0E0AC0FBD1FEA0EFB1E25
S1131E00D7011196BC9002C090E3B92E61507109BC
S1131E103196C60101967C016017710724F0D60142
S1131E20BC926C01D5CF6417750741F4363320F4A6
S1131E30353321F4A11002C081E3B82EF601B0823B
S1131E40F701822F90E2882319F091938150FBCF00
S1131E50F701E20FF11D108280E090E029960FB6A1
S1131E60F894DEBF0FBECDBFDF91CF911F910F91CC
S1131E70FF90EF90DF90CF90BF90AF909F907F90B6
S1131E806F905F904F900895283008F027E0332733
S1131E90DA01990F311D87FD916000966105710586
S1131EA039F432602E5F3D9330E32A95E1F70895CB
S1131EB09F3F30F080387105610509F03C5F3C5F5D
S1131EC03D93913008F08068911DDF93CF931F9369
S1131ED00F93FF92EF92192F987F9695E92F96957D
S1131EE09695E90FFF27E45EFE4F99273327EE24EA
S1131EF0FF24A701E70105900894079428F4360FFE
S1131F00E71EF81E491F511D660F771F881F991F72
S1131F100694A1F70590079428F4E70EF81E491FCC
S1131F20561FC11D770F881F991F661F0694A1F7BE
S1131F300590079428F4F80E491F561FC71FD11D9A
S1131F40880F991F661F771F0694A1F705900794C1
S1131F5020F4490F561FC71FD81F990F661F771FFC
S1131F60881F0694A9F784911095177041F0D695AF
S1131F70C79557954795F794E7941A95C1F7E2ECFE
S1131F80F0E06894159015913591659195910590BF
S1131F907FE27395E118F10A430B560BC90BD00984
S1131FA0C0F7E10CF11E431F561FC91FD01D7EF45C
S1131FB0703311F48A95E6CFE894015030F0080F9D
S1131FC00AF40027021708F4202F2395022F7A33EE
S1131FD028F079E37D932A95E9F710C07D932A953B
S1131FE089F6069497956795379517951794E11890
S1131FF0F10A430B560BC90BD00998F023957E9137
S113200073957A3308F070E37C932013B8F77E91CC
S113201070617D9330F0839571E37D9370E32A952D
S1132020E1F71124EF90FF900F911F91CF91DF9171
S10F2030992787FD90950895F894FFCF40
S113203CCDCCCC3E0000D2C27F6ABC3C0000B04088
S113204C55534152545F696E69740D0A00693263C9
S113205C5F696E69740D0A00636F6D70416E676C15
S113206C652E726F6C6C3A0050574D206761696E27
S113207C00616E676C650020207C20204B503A0078
S113208C20207C20204B443A0020207C20204B49EB
S105209C3A0004
S9030000FC
