:100000000C94DE000C94FB000C94FB000C94FB00A1
:100010000C94FB000C94FB000C94FB000C94FB0074
:100020000C94FB000C94FB000C94FB000C94FB0064
:100030000C94FB000C942B050C94FB000C94FB001F
:100040000C94FB000C94FB000C94FB000C94FB0044
:100050000C94FB00084AD73B3BCE016E84BCBFFD2D
:10006000C12F3D6C74319ABD56833DDA3D00C77F88
:1000700011BED9E4BB4C3E916BAAAABE0000008021
:100080003F05A84CCDB2D44EB93836A9020C50B9B0
:10009000918688083CA6AAAA2ABE000000803F06D6
:1000A00064EC1B3C04BC163E3BE5B93CC93C37C282
:1000B0009E5A3D660498083EEA69AAAA3E000000DE
:1000C000803F00407A10F35A00A0724E18090010C9
:1000D000A5D4E80000E87648170000E40B540200BD
:1000E00000CA9A3B000000E1F505000080969800E8
:1000F000000040420F000000A08601000000102711
:1001000000000000E80300000000640000000000A0
:100110000A00000000000100000000002C76D888D2
:10012000DC674F0823DFC1DFAE59E1B1B796E5E3E5
:10013000E453C63AE651997696E8E6C28426EB89FE
:100140008C9B62ED407C6FFCEFBC9C9F40F2BAA59B
:100150006FA5F490055A2AF75C936B6CF9676DC133
:100160001BFCE0E40D47FEF520E6B500D0ED902E37
:100170000300943577050080841E080000204E0A95
:10018000000000C80C333333330F986E12831141D3
:10019000EF8D2114893BE65516CFFEE6DB18D1849E
:1001A0004B381BF77C1D901DA4BBE42420328472C5
:1001B0005E228100C9F124ECA1E53D2711241FBE78
:1001C000CFE5D8E0DEBFCDBF10E0A0E6B0E0EEEEB8
:1001D000FFE102C005900D92A63DB107D9F721E0DD
:1001E000A6EDB0E001C01D92AD30B207E1F70E946C
:1001F000DC020C94F50F0C940000CF93C82F80ED17
:100200000E94CA088C2F0E94F10881ED0E94E80824
:100210000E94FE08C82F0E94EB088C2FCF910895F2
:10022000CF93DF93D82FC62F80ED0E94CA088D2F61
:100230000E94F1088C2F0E94F1080E94EB08DF91C8
:10024000CF910895CF93DF93D82F83E48D0F0E9431
:10025000FD00C82F84E48D0F0E94FD006C2F70E01C
:10026000762F6627680F711D072E000C880B990BDF
:100270000E94980ADF91CF910895CF93DF93D82FF2
:100280008BE38D0F0E94FD00C82F8CE38D0F0E9421
:10029000FD002C2F30E0322F2227A901480F511DDD
:1002A000CA01DF91CF9108952F923F924F925F92B2
:1002B0006F927F928F929F92AF92BF92CF92DF9276
:1002C000EF92FF920F931F93CF93DF93CDB7DEB7DB
:1002D00068970FB6F894DEBF0FBECDBF1C018B012F
:1002E0005A01FB01C480D580E680F78025E33AEF10
:1002F0004EE85CE3F50160817181828193810E9407
:10030000620C69837A838B839C830E94CF0C6D83FC
:100310007E838F8398879B01AC01C701B6010E9441
:10032000620C6D877E878F87988B25E33AEF4EE8C6
:100330005CE3F50164817581868197810E94620C7E
:100340002B013C010E94210D69877A878B879C874E
:10035000F80180849184A284B38469817A818B813D
:100360009C810E94E90969837A838B839C839B012A
:10037000AC01C501B4010E94620C698B7A8B8B8B36
:100380009C8BC301B2010E94E9092B013C01298524
:100390003A854B855C856D857E858F8598890E9421
:1003A000620CF80120813181428153810E9406094B
:1003B0006D8B7E8B8F8B988F29893A894B895C89CD
:1003C00069857A858B859C850E94620C9B01AC01B6
:1003D0006D897E898F89988D0E940609F10160835D
:1003E00071838283938329813A814B815C81C70128
:1003F000B6010E94620C6B017C01A50194016D8124
:100400007E818F8198850E94620C9B01AC01C7019F
:10041000B6010E940509F101648375838683978381
:10042000A30192016D857E858F8598890E94EE09D2
:100430004B015C01A301920169897A898B899C89AE
:100440000E94EE099B01AC01C501B4010E9406099E
:10045000F1016087718782879387C10168960FB623
:10046000F894DEBF0FBECDBFDF91CF911F910F91EA
:10047000FF90EF90DF90CF90BF90AF909F908F90C4
:100480007F906F905F904F903F902F900895181637
:10049000190654F4AA9AAB988F3F910519F014F0FD
:1004A0008FEF90E083BD14C0AB9AAA989C0199236A
:1004B00024F422273327281B390B33233CF02F3F0A
:1004C000310529F024F02FEF30E001C020E023BDFA
:1004D0001616170654F4AC9AAE986F3F710519F0D2
:1004E00014F06FEF70E06CBF0895AE9AAC98CB013A
:1004F000992324F488279927861B970B99233CF08E
:100500008F3F910529F024F08FEF90E001C080E04B
:100510008CBF089584B38C6584BB8F9ABB9A089571
:1005200082E08BB98AB188698AB986E880BD10BC3F
:1005300080E189B908955D9BFECF8CB908950F9332
:100540001F93CF93DF93CDB7DEB72A970FB6F894FA
:10055000DEBF0FBECDBF8E010F5F1F4F23E047E010
:100560000E946F0D8981882369F010E00E949B0230
:100570001F5FE1E0F0E0EC0FFD1FE10FF11D808156
:100580008111F4CF2A960FB6F894DEBF0FBECDBF0F
:10059000DF91CF911F910F910895CF93DF93EC01DD
:1005A0008881882331F021960E949B0289918111D4
:1005B000FBCFDF91CF910895CF93DF93CDB7DEB717
:1005C000E4970FB6F894DEBF0FBECDBF19821A8232
:1005D0001B821C821D821E821F82188619861A8623
:1005E0001B861C86198E1A8E1B8E1C8E1D8E1E8ECF
:1005F0001F8E18A219A21AA21BA21CA28FE195E8B5
:10060000ABE6BFE38DA39EA3AFA3B8A7BD9AC598E1
:1006100081B381BB1FBC8EB582608EBD85B58A66F5
:1006200085BD83B78A6683BF13BC1CBEC0906800BB
:10063000D0906900E0906A00F0906B000091DE00BD
:100640001091DF002091E0003091E10040916C00BA
:1006500050916D0060916E0070916F0087EE90E098
:100660000E940B0740916400509165006091660004
:100670007091670087EE90E00E9433070E9490021D
:1006800080E790E00E94CD0278940E94A8088DE750
:1006900090E00E94CD02BD9AC59860E08BE60E9472
:1006A000100168E08BE10E9410010E948A022FEF86
:1006B00083ED90E3215080409040E1F700C00000BE
:1006C00080E00E943D018C0182E00E943D017C019E
:1006D00084E00E943D015C01B7016A547140072E1D
:1006E000000C880B990B0E94980A6B017C0180EA30
:1006F00096EF8A199B09BC01990F880B990B0E94F0
:10070000980A4B015C01A70196010E948509905847
:1007100021EE3EE245E652E40E94620C698F7A8F38
:100720008B8F9C8FA5019401C701B6010E94C10B5C
:100730006B017C01C801865B9340BC01990F880B5B
:10074000990B0E94980AA70196010E94850921EE43
:100750003EE245E652E40E94620C6D8F7E8F8F8FE1
:1007600098A30F2EF0EA2F2EF6EF3F2EF02D8CB52A
:100770009DB580319742D8F36CB57DB580E090E0AF
:100780000E94960A20E034E244E759E40E94EE0910
:100790006093E2007093E3008093E4009093E5009F
:1007A0001DBC1CBC80E00E943D018C0182E00E94C7
:1007B0003D016C0184E00E943D017C0180E00E94CB
:1007C000220120E030E04FE853E40E94060920E0D7
:1007D00030E040E752E40E94EE092091E2003091BF
:1007E000E3004091E4005091E5000E94620C6983AF
:1007F0007A838B839C8384E00E94220120E030E096
:1008000040E153E40E94060920E030E040E752E472
:100810000E94EE092091E2003091E3004091E40053
:100820005091E5000E94620C6D837E838F839887D0
:1008300082E00E94220120E030E047E553E40E947C
:100840000609905820E030E040E752E40E94EE09AB
:100850002091E2003091E3004091E4005091E500E6
:100860000E94620C69877A878B879C87B6016A54DD
:100870007140072E000C880B990B0E94980A4B01BF
:100880005C01B1016E197F09072E000C880B990BD2
:100890000E94980A2B013C01A50194010E94850940
:1008A00069A77AA78BA79CA7A3019201C501B401F0
:1008B0000E94C10B4B015C01B801665B7340072EBF
:1008C000000C880B990B0E94980AA50194010E94C4
:1008D00085096DA77EA78FA798ABAE01475E5F4FD6
:1008E000BE016F5F7F4FCE010D960E9454014D8473
:1008F0005E846F8478888DA09EA0AFA0B8A4A50167
:10090000940160E070E080E89FE30E9405096B01BC
:100910007C012D8D3E8D4F8D58A169897A898B89F7
:100920009C890E9406099B01AC01C501B4010E948B
:10093000620C69AB7AAB8BAB9CAB21EE3EE245E639
:1009400052E46DA57EA58FA598A90E94620CA7010F
:1009500096010E94620C9B01AC0169A97AA98BA93E
:100960009CA90E9406096D8F7E8F8F8F98A3298D79
:100970003A8D4B8D5C8DC301B2010E9406099B012B
:10098000AC01C501B4010E94620C4B015C0121EE77
:100990003EE245E652E469A57AA58BA59CA50E9496
:1009A000620CA70196010E94620C9B01AC01C5017B
:1009B000B4010E940609AB01BC01498F5A8F6B8FAD
:1009C0007C8F4093DA005093DB006093DC007093DF
:1009D000DD000091E2001091E3002091E4003091ED
:1009E000E50087EE90E00E9441076B017C010E94C8
:1009F000600ADC01CB01BC010E944702C092D60014
:100A0000D092D700E092D800F092D9008090640094
:100A100090906500A0906600B0906700C09068005C
:100A2000D0906900E0906A00F0906B000091DE00C9
:100A30001091DF002091E0003091E10040916C00C6
:100A400050916D0060916E0070916F0087EE90E0A4
:100A50000E9454088CCE1F920F920FB60F92112451
:100A60008F929F92AF92BF92CF92DF92EF92FF92BE
:100A70000F931F932F933F934F935F936F937F93A6
:100A80008F939F93AF93BF93EF93FF938CB180931A
:100A9000E6008033D9F42DEC3CEC4CEC5DE3609146
:100AA0006C0070916D0080916E0090916F000E94BB
:100AB000060960936C0070936D0080936E009093B4
:100AC0006F0087EE90E00E94800866C18133D9F400
:100AD0002DEC3CEC4CEC5DE360916C0070916D0092
:100AE00080916E0090916F000E94050960936C00E8
:100AF00070936D0080936E0090936F0087EE90E08E
:100B00000E94800849C18233D9F42FE632E143E8DC
:100B10005AE3609168007091690080916A00909139
:100B20006B000E94060960936800709369008093CF
:100B30006A0090936B0087EE90E00E9480082CC1C1
:100B40008333D9F42FE632E143E85AE36091680039
:100B50007091690080916A0090916B000E94050974
:100B6000609368007093690080936A0090936B00B3
:100B700087EE90E00E9480080FC18433D9F42DECF9
:100B80003CEC4CE45EE36091DE007091DF0080910C
:100B9000E0009091E1000E9406096093DE007093EE
:100BA000DF008093E0009093E10087EE90E00E94E8
:100BB0008008F2C08533D9F42DEC3CEC4CE45EE3C4
:100BC0006091DE007091DF008091E0009091E10083
:100BD0000E9405096093DE007093DF008093E000BF
:100BE0009093E10087EE90E00E948008D5C08633A4
:100BF00099F488E890E00E94CD026091DA0070914B
:100C0000DB008091DC009091DD000E949F028AE76A
:100C100090E00E94CD02C0C0873349F52AE037ED4D
:100C200043E25CE36091600070916100809162003A
:100C3000909163000E9406096093600070936100C8
:100C4000809362009093630088E990E00E94CD0257
:100C500060916000709161008091620090916300EA
:100C60000E949F028AE790E00E94CD0295C08833DF
:100C700049F52AE037ED43E25CE360916000709152
:100C8000610080916200909163000E940509609369
:100C9000600070936100809362009093630088E924
:100CA00090E00E94CD02609160007091610080919F
:100CB0006200909163000E949F028AE790E00E9488
:100CC000CD026AC0813649F520E030E040E85FE3BC
:100CD000609164007091650080916600909167005A
:100CE0000E9406096093640070936500809366001B
:100CF0009093670083EA90E00E94CD0260916400C7
:100D00007091650080916600909167000E949F023B
:100D10008AE790E00E94CD023FC0823649F520E08C
:100D200030E040E85FE3609164007091650080917D
:100D30006600909167000E940509609364007093BB
:100D40006500809366009093670083EA90E00E94BC
:100D5000CD02609164007091650080916600909171
:100D600067000E949F028AE790E00E94CD0214C0B3
:100D7000803791F483EB90E00E94CD026091D60021
:100D80007091D7008091D8009091D9000E949F0265
:100D90008AE790E00E94CD02809064009090650008
:100DA000A0906600B0906700C0906800D090690085
:100DB000E0906A00F0906B000091DE001091DF007F
:100DC0002091E0003091E10040916C0050916D0065
:100DD00060916E0070916F0087EE90E00E94540861
:100DE000FF91EF91BF91AF919F918F917F916F9103
:100DF0005F914F913F912F911F910F91FF90EF9035
:100E0000DF90CF90BF90AF909F908F900F900FBECC
:100E10000F901F901895CF92DF92EF92FF920F9351
:100E20001F93FC0140835183628373830483158382
:100E300026833783C086D186E286F386148615869C
:100E400016861786148A158A168A178A108A118AB6
:100E5000128A138A118E108E1F910F91FF90EF90BE
:100E6000DF90CF900895FC01448755876687778788
:100E7000148A158A168A178A108A118A128A138A86
:100E800008952F923F924F925F926F927F928F922E
:100E90009F92AF92BF92CF92DF92EF92FF920F9309
:100EA0001F93CF93DF9300D000D000D0CDB7DEB733
:100EB0009E838D8349835A836B837C8348015901C8
:100EC0009A01AB01FC0164857585868597850E9432
:100ED00005096B017C01A50194010E94620CED8162
:100EE000FE8120893189428953890E940609162F83
:100EF000072F382E292EED81FE81208131814281FC
:100F00005381C701B6010E94620C2B013C01ED81A7
:100F1000FE812481358146815781612F702F832D79
:100F2000922D0E94620C9B01AC01C301B2010E9490
:100F300006092B013C01ED81FE8124893589468912
:100F4000578969817A818B819C810E940509A5015D
:100F500094010E94EE09ED81FE8120853185428554
:100F600053850E94620C9B01AC01C301B2010E9437
:100F70000609A62E972E882E9983ED81FE81B08CCE
:100F8000B0FE3BC020E030E0A901612F702F832D1F
:100F9000922D0E94E4098823ACF4ED81FE81428CFD
:100FA000538C648C758C77FA709477F87094A301E5
:100FB0009201612F702F832D922D0E94E4098823C6
:100FC000C4F01BC0ED81FE81728C638C548C458C07
:100FD000272D362D452D542D612F702F832D922DC9
:100FE0000E94E40988234CF0172D062D352C242C63
:100FF00004C0142D052D362C272C812F902FA32DC6
:10100000B22DED81FE81808B918BA28BB38BB2FED2
:1010100010C012A103A174A065A0212F302F472D6D
:10102000562D6A2D792D882D99810E94E4098823F7
:10103000F4F0B3FE12C0ED81FE81168D078D70A015
:1010400061A0212F302F472D562D6A2D792D882D07
:1010500099810E94AE0B181654F0ED81FE81C48A6E
:10106000D58AE68AF78A1A2D092D782C6980612F96
:10107000702F872D962D26960FB6F894DEBF0FBEE3
:10108000CDBFDF91CF911F910F91FF90EF90DF9037
:10109000CF90BF90AF909F908F907F906F905F9018
:1010A0004F903F902F9008958F929F92AF92BF9252
:1010B000CF92DF92EF92FF920F931F93CF93DF9324
:1010C000CDB7DEB7FC014083518362837383048311
:1010D000158326833783C086D186E286F38684868D
:1010E0009586A686B786DF91CF911F910F91FF90CD
:1010F000EF90DF90CF90BF90AF909F908F9008952A
:10110000CF93DF93EC018BEB90E00E94CD026881DE
:1011100079818A819B810E949F0284EC90E00E94E9
:10112000CD02688579858A859B850E949F028DEC1A
:1011300090E00E94CD026C817D818E819F810E9412
:101140009F028AE790E00E94CD02DF91CF9108953F
:1011500011B882E080B9089594EA96BF06B607FEFA
:10116000FDCF91B1987F983011F0903179F483B927
:1011700084E886BF06B607FEFDCF91B1987F98310F
:1011800039F081E0903429F480E0089581E00895F9
:1011900080E0089524EA34E844E926BF06B607FE55
:1011A000FDCF91B1987F983011F09031B1F783B9AC
:1011B00036BF06B607FEFDCF91B1987F903211F091
:1011C000983529F446BF06B604FCFDCFE6CF089556
:1011D0000E94AC08089584E986BF06B604FCFDCFE2
:1011E000089583B984E886BF06B607FEFDCF91B1A6
:1011F000987F81E0983209F480E0089584E886BF02
:1012000006B607FEFDCF83B108955058BB27AA2725
:101210000E941D090C94600B0E94270B38F00E945D
:101220002E0B20F039F49F3F19F426F40C94FD0A9C
:101230000EF4E095E7FB0C94F70AE92F0E94850B6A
:1012400058F3BA17620773078407950720F079F4FB
:10125000A6F50C94A70B0EF4E0950B2EBA2FA02D3B
:101260000B01B90190010C01CA01A0011124FF2753
:10127000591B99F0593F50F4503E68F11A16F0404E
:10128000A22F232F342F4427585FF3CF469537954D
:101290002795A795F0405395C9F77EF41F16BA0B12
:1012A000620B730B840BBAF09150A1F0FF0FBB1FC0
:1012B000661F771F881FC2F70EC0BA0F621F731F09
:1012C000841F48F4879577956795B795F7959E3F66
:1012D00008F0B0CF9395880F08F09927EE0F9795F7
:1012E000879508950E94270B60F080E891E009F44B
:1012F0009EEF0E942E0B28F040E851E071F45EEF63
:101300000CC00C94FD0A0C94A70BE92FE0780E9406
:10131000850B40F3092E052AB1F326173707480736
:10132000590738F00E2E07F8E02569F0E025E06453
:101330000AC0EF6307F8009407FADB01B9019D01C9
:10134000DC01CA01AD01EF930E94050A0E94600B07
:101350000E94B5095F91552339F02BED3FE049E438
:1013600050FD49EC0C9406090895DF93DD27B92F51
:10137000BF7740E85FE31616170648075B0718F4C7
:10138000D92F0E94200C9F938F937F936F930E947D
:101390001D0DE4E5F0E00E94000B0E94600B2F9110
:1013A0003F914F915F910E94750CDD2351F0905851
:1013B000A2EA2AED3FE049EC5FE3D0785D270E9486
:1013C0001D09DF910C94600B0E94D30A08F481E0A0
:1013D00008950E94370BE3950C94710B0E94020A4A
:1013E0000C94600B0E942E0B58F00E94270B40F0CB
:1013F00029F45F3F29F00C94F70A51110C94A80BC3
:101400000C94FD0A0E94850B68F39923B1F35523D0
:1014100091F3951B550BBB27AA2762177307840707
:1014200038F09F5F5F4F220F331F441FAA1FA9F39D
:1014300035D00E2E3AF0E0E832D091505040E6958B
:10144000001CCAF72BD0FE2F29D0660F771F881FEC
:10145000BB1F261737074807AB07B0E809F0BB0BDF
:10146000802DBF01FF2793585F4F3AF09E3F5105F3
:1014700078F00C94F70A0C94A80B5F3FE4F3983EC5
:10148000D4F3869577956795B795F7959F5FC9F7DC
:10149000880F911D9695879597F90895E1E0660F5D
:1014A000771F881FBB1F621773078407BA0720F0D6
:1014B000621B730B840BBA0BEE1F88F7E09508953F
:1014C0000E94670A6894B1110C94A80B08950E94B9
:1014D0008D0B88F09F5798F0B92F9927B751B0F02E
:1014E000E1F0660F771F881F991F1AF0BA95C9F7A8
:1014F00014C0B13091F00E94A70BB1E008950C9494
:10150000A70B672F782F8827B85F39F0B93FCCF346
:10151000869577956795B395D9F73EF49095809524
:10152000709561957F4F8F4F9F4F0895E89409C044
:1015300097FB3EF490958095709561957F4F8F4F06
:101540009F4F9923A9F0F92F96E9BB279395F6951C
:10155000879577956795B795F111F8CFFAF4BB0F9A
:1015600011F460FF1BC06F5F7F4F8F4F9F4F16C0FE
:10157000882311F096E911C0772321F09EE8872F88
:10158000762F05C0662371F096E8862F70E060E044
:101590002AF09A95660F771F881FDAF7880F9695BD
:1015A000879597F90895990F0008550FAA0BE0E861
:1015B000FEEF16161706E807F907C0F01216130615
:1015C000E407F50798F0621B730B840B950B39F455
:1015D0000A2661F0232B242B252B21F408950A26BB
:1015E00009F4A140A6958FEF811D811D089597F9FB
:1015F0009F6780E870E060E008959FEF80EC0895B9
:10160000DF93CF931F930F93FF92EF92DF927B01B3
:101610008C01689406C0DA2EEF010E94750CFE0161
:10162000E894A5912591359145915591A6F3EF0147
:101630000E941D09FE019701A801DA9469F7DF9065
:10164000EF90FF900F911F91CF91DF9108950024AB
:101650000A941616170618060906089500240A9417
:10166000121613061406050608950C94FD0A0E942E
:101670008D0BD8F3E894E0E0BB279F57F0F02AEDFC
:101680003FE049EC06C0EE0FBB0F661F771F881FB7
:1016900028F0B23A62077307840728F0B25A620B47
:1016A000730B840BE3959A9572F7803830F49A9512
:1016B000BB0F661F771F881FD2F790480C94480D08
:1016C000092E0394000C11F4882352F0BB0F40F450
:1016D000BF2B11F460FF04C06F5F7F4F8F4F9F4F90
:1016E0000895EF93E0FF07C0A2EA2AED3FE049EC3E
:1016F0005FEB0E941D090E94600B0F90039401FC98
:101700009058E1E8F0E00C945B0D57FD9058440FC1
:10171000551F59F05F3F71F04795880F97FB991F50
:1017200061F09F3F79F0879508951216130614060D
:10173000551FF2CF4695F1DF08C01616170618069A
:10174000991FF1CF86957105610508940895E89475
:10175000BB2766277727CB0197F908950E94D30A04
:1017600008F48FEF08950E94270B29F00E942E0B9A
:1017700011F00C94FD0A0C94F70AB901CA010C94FB
:10178000460D9F775F770E94850B68F39923A9F335
:101790005523A9F3FF27951758F4E52FE91BED30E2
:1017A00060F75E3B10F0F1E41CC09034E0F40AC036
:1017B000E92FE51BED3018F79E3B10F0F1E411C066
:1017C000503488F4F9EA88232AF09A95660F771F37
:1017D000881FDAF744232AF05A95220F331F441F3B
:1017E000DAF79F1B5F1BFF931F930F93FF92EF92FC
:1017F00079018A01BB27AB2F9B01AC010E94780CB9
:101800009701A801BF937B018C01AA27BA2FB901C8
:10181000CA010E94780CAF919701A801EF90FF9048
:101820000F911F910E941D090E94600B0E94DD0C08
:101830004F9140FF0895552747FD50950C942C0C6F
:101840009B01AC0160E070E080E89FE30C94EE093E
:101850000C94F70A0C94460D0E948D0BD8F3992333
:10186000C9F3940F511DA3F39150504094F059F0D7
:10187000882332F0660F771F881F91505040C1F7C0
:101880009E3F51052CF7880F911D9695879597F9E6
:1018900008955F3FACF0983E9CF0BB278695779506
:1018A0006795B79508F4B1609395C1F7BB0F58F7EA
:1018B00011F460FFE8CF6F5F7F4F8F4F9F4FE3CFF3
:1018C0000C94A80B0E94750C0C94600B0E94270BC3
:1018D00038F00E942E0B20F0952311F00C94F70A9B
:1018E0000C94FD0A11240C94A80B0E94850B70F334
:1018F000959FC1F3950F50E0551F629FF001729FB5
:10190000BB27F00DB11D639FAA27F00DB11DAA1FC3
:10191000649F6627B00DA11D661F829F2227B00D10
:10192000A11D621F739FB00DA11D621F839FA00D9B
:10193000611D221F749F3327A00D611D231F849FEB
:10194000600D211D822F762F6A2F11249F57504042
:101950009AF0F1F088234AF0EE0FFF1FBB1F661FBD
:10196000771F881F91505040A9F79E3F510580F086
:101970000C94F70A0C94A80B5F3FE4F3983ED4F361
:10198000869577956795B795F795E7959F5FC1F72A
:10199000FE2B880F911D9695879597F908959F9333
:1019A0000E94370B0F9007FCEE5F0C94710B19F43B
:1019B00016F40C94FD0A0C94460D0E948D0BB8F39E
:1019C0009923C9F3B6F39F57550B87FF0E94540D17
:1019D0000024A0E640EA900180585695979528F497
:1019E000805C660F771F881F20F02617370748078F
:1019F00030F4621B730B840B202931294A2BA695E6
:101A000017940794202531254A2758F7660F771F2A
:101A1000881F20F026173707480730F4620B730B36
:101A2000840B200D311D411DA09581F7B901842F34
:101A30009158880F9695879508959B01AC010C9459
:101A4000620CDF93D92F0E94370BE695D7952AEDCC
:101A50003FE049E45FE3B33A620773078407950701
:101A6000D7953AF0A2EA49EC90680E941D090E94BD
:101A7000600BEFE9F0E00E945B0DDD0F13F00E94B8
:101A8000200CDD0F0BF49058DF9108959F3F31F04B
:101A9000915020F4879577956795B795880F911D9C
:101AA0009695879597F9089591505040660F771F46
:101AB000881FD2F708959F938F937F936F93FF931F
:101AC000EF939B01AC010E94620CEF91FF910E9489
:101AD000000B2F913F914F915F910C94620CEF920C
:101AE0000F931F93CF93DF93E80147FD02C034E0CB
:101AF00001C034E1E42F440FFF0BF7FF03C0F19561
:101B0000E195F109E32E022F2E2FAE010E948F0DD9
:101B1000CE01DF91CF911F910F91EF9008954F92D9
:101B20005F926F927F929F92AF92BF92CF92DF921D
:101B3000EF92FF920F931F93CF93DF93CDB7DEB752
:101B400029970FB6F894DEBF0FBECDBF6A01122FE2
:101B5000B02E2BE3201720F0FF24F394F00E02C0E8
:101B6000BCE3FB2E0F2D27E0AE014F5F5F4F0E94BD
:101B70001D0FAC018981982F9970913031F0E1FCF3
:101B800006C0E0FE06C090E205C09DE203C09BE2F5
:101B900001C090E0EE2DE07183FF3CC0911102C0C6
:101BA00083E001C084E0811718F4212F281B01C0B5
:101BB00020E0E1110BC0F601822F30E2882319F0FA
:101BC00031938150FBCFC20ED11C20E0992329F024
:101BD000D6019C93F60131966F01C6010396E2FE91
:101BE0000AC03EE4D6013C9341E411964C93119710
:101BF00012963C9306C03EE6F601308341E64183EF
:101C00003283FC01322F40E2332309F442C0419376
:101C10003150FACF82FF44C0911102C083E001C06D
:101C200084E0811718F4212F281B01C020E0E11166
:101C30000BC0F601822F30E2882319F031938150D6
:101C4000FBCFC20ED11C20E0992329F0D6019C9332
:101C5000F60131966F01C6010396E2FE0BC039E42E
:101C6000D6013C933EE411963C93119736E41296CC
:101C70003C9307C039E6F60130833EE6318336E611
:101C80003283FC01322F40E2332319F0419331506B
:101C9000FBCFFC01E20FF11D10828EEF9FEFB7C06A
:101CA000F1E0911101C0F0E06F2F70E014161506FD
:101CB00024F49A012F5F3F4F02C021E030E0260F4D
:101CC000371FBB2029F06B2D70E06F5F7F4F02C084
:101CD00060E070E0260F371F612F70E0261737078E
:101CE0001CF4121B212F01C020E03E2D387159F445
:101CF000D601322F60E2332319F06D933150FBCFC0
:101D0000C20ED11C20E0FF2331F0D6019C93B60116
:101D10006F5F7F4F6B01E1110BC0F601922F30E333
:101D2000992319F031939150FBCFC20ED11C20E0C2
:101D30009F2D940F3A81782F7071A72E84FF03C0D6
:101D4000313309F49150191624F4993018F098E0C1
:101D500001C091E0E42F852F57FF02C0E0E080E052
:101D60006E2F782FE0E0F0E0AEE29A2E3A01691A89
:101D700071082A01461A570A0B2D10E0119501959A
:101D800011096F3F8FEF780729F4D6019C92C601A5
:101D900001966C014617570784F0661677066CF4B7
:101DA0007F01E40CF51CA1E0B0E0AC0FBD1FEA0E12
:101DB000FB1ED7011196BC9002C090E3B92E615072
:101DC00071093196C60101967C016017710724F0F4
:101DD000D601BC926C01D5CF6417750741F4363338
:101DE00020F4353321F4A11002C081E3B82EF601AE
:101DF000B082F701822F90E2882319F091938150ED
:101E0000FBCFF701E20FF11D108280E090E02996F0
:101E10000FB6F894DEBF0FBECDBFDF91CF911F91FB
:101E20000F91FF90EF90DF90CF90BF90AF909F9079
:101E30007F906F905F904F900895283008F027E0D2
:101E40003327DA01990F311D87FD916000966105F6
:101E5000710539F432602E5F3D9330E32A95E1F746
:101E600008959F3F30F080387105610509F03C5FAF
:101E70003C5F3D93913008F08068911DDF93CF93D4
:101E80001F930F93FF92EF92192F987F9695E92F4A
:101E900096959695E90FFF27E45EFE4F9927332725
:101EA000EE24FF24A701E70105900894079428F485
:101EB000360FE71EF81E491F511D660F771F881F3A
:101EC000991F0694A1F70590079428F4E70EF81ED1
:101ED000491F561FC11D770F881F991F661F069443
:101EE000A1F70590079428F4F80E491F561FC71F45
:101EF000D11D880F991F661F771F0694A1F70590C3
:101F0000079420F4490F561FC71FD81F990F661F4B
:101F1000771F881F0694A9F784911095177041F0D8
:101F2000D695C79557954795F794E7941A95C1F7B5
:101F3000E2ECF0E0689415901591359165919591DA
:101F400005907FE27395E118F10A430B560BC90B1C
:101F5000D009C0F7E10CF11E431F561FC91FD01D49
:101F60007EF4703311F48A95E6CFE894015030F096
:101F7000080F0AF40027021708F4202F2395022FD8
:101F80007A3328F079E37D932A95E9F710C07D93A1
:101F90002A9589F60694979567953795179517941E
:101FA000E118F10A430B560BC90BD00998F02395A1
:101FB0007E9173957A3308F070E37C932013B8F721
:101FC0007E9170617D9330F0839571E37D9370E332
:101FD0002A95E1F71124EF90FF900F911F91CF9177
:0E1FE000DF91992787FD90950895F894FFCF23
:101FEE000AD7A33E0000C6C25839343D3333B3403E
:101FFE0055534152545F696E69740D0A006932631C
:10200E005F696E69740D0A00636F6D70416E676C67
:10201E00652E726F6C6C3A004C50465F4741494ECC
:10202E00203A00726571756573746564416E676CF4
:10203E00653A0050574D647574790020207C20203D
:10204E004B503A0020207C20204B443A0020207C2C
:06205E0020204B493A006E
:00000001FF
